{
  "_format": "hh-sol-artifact-1",
  "contractName": "Event",
  "sourceName": "contracts/Event.sol",
  "abi": [
    {
      "inputs": [],
      "stateMutability": "nonpayable",
      "type": "constructor"
    },
    {
      "anonymous": false,
      "inputs": [
        {
          "indexed": true,
          "internalType": "address",
          "name": "owner",
          "type": "address"
        },
        {
          "indexed": true,
          "internalType": "address",
          "name": "approved",
          "type": "address"
        },
        {
          "indexed": true,
          "internalType": "uint256",
          "name": "tokenId",
          "type": "uint256"
        }
      ],
      "name": "Approval",
      "type": "event"
    },
    {
      "anonymous": false,
      "inputs": [
        {
          "indexed": true,
          "internalType": "address",
          "name": "owner",
          "type": "address"
        },
        {
          "indexed": true,
          "internalType": "address",
          "name": "operator",
          "type": "address"
        },
        {
          "indexed": false,
          "internalType": "bool",
          "name": "approved",
          "type": "bool"
        }
      ],
      "name": "ApprovalForAll",
      "type": "event"
    },
    {
      "anonymous": false,
      "inputs": [
        {
          "indexed": false,
          "internalType": "uint8",
          "name": "version",
          "type": "uint8"
        }
      ],
      "name": "Initialized",
      "type": "event"
    },
    {
      "anonymous": false,
      "inputs": [
        {
          "indexed": true,
          "internalType": "bytes32",
          "name": "role",
          "type": "bytes32"
        },
        {
          "indexed": true,
          "internalType": "bytes32",
          "name": "previousAdminRole",
          "type": "bytes32"
        },
        {
          "indexed": true,
          "internalType": "bytes32",
          "name": "newAdminRole",
          "type": "bytes32"
        }
      ],
      "name": "RoleAdminChanged",
      "type": "event"
    },
    {
      "anonymous": false,
      "inputs": [
        {
          "indexed": true,
          "internalType": "bytes32",
          "name": "role",
          "type": "bytes32"
        },
        {
          "indexed": true,
          "internalType": "address",
          "name": "account",
          "type": "address"
        },
        {
          "indexed": true,
          "internalType": "address",
          "name": "sender",
          "type": "address"
        }
      ],
      "name": "RoleGranted",
      "type": "event"
    },
    {
      "anonymous": false,
      "inputs": [
        {
          "indexed": true,
          "internalType": "bytes32",
          "name": "role",
          "type": "bytes32"
        },
        {
          "indexed": true,
          "internalType": "address",
          "name": "account",
          "type": "address"
        },
        {
          "indexed": true,
          "internalType": "address",
          "name": "sender",
          "type": "address"
        }
      ],
      "name": "RoleRevoked",
      "type": "event"
    },
    {
      "anonymous": false,
      "inputs": [
        {
          "indexed": true,
          "internalType": "address",
          "name": "from",
          "type": "address"
        },
        {
          "indexed": true,
          "internalType": "address",
          "name": "to",
          "type": "address"
        },
        {
          "indexed": true,
          "internalType": "uint256",
          "name": "tokenId",
          "type": "uint256"
        }
      ],
      "name": "Transfer",
      "type": "event"
    },
    {
      "inputs": [],
      "name": "DEFAULT_ADMIN_ROLE",
      "outputs": [
        {
          "internalType": "bytes32",
          "name": "",
          "type": "bytes32"
        }
      ],
      "stateMutability": "view",
      "type": "function"
    },
    {
      "inputs": [],
      "name": "MINTER_ROLE",
      "outputs": [
        {
          "internalType": "bytes32",
          "name": "",
          "type": "bytes32"
        }
      ],
      "stateMutability": "view",
      "type": "function"
    },
    {
      "inputs": [
        {
          "internalType": "address",
          "name": "to",
          "type": "address"
        },
        {
          "internalType": "uint256",
          "name": "tokenId",
          "type": "uint256"
        }
      ],
      "name": "approve",
      "outputs": [],
      "stateMutability": "nonpayable",
      "type": "function"
    },
    {
      "inputs": [
        {
          "internalType": "address",
          "name": "owner",
          "type": "address"
        }
      ],
      "name": "balanceOf",
      "outputs": [
        {
          "internalType": "uint256",
          "name": "",
          "type": "uint256"
        }
      ],
      "stateMutability": "view",
      "type": "function"
    },
    {
      "inputs": [],
      "name": "baseURI",
      "outputs": [
        {
          "internalType": "string",
          "name": "",
          "type": "string"
        }
      ],
      "stateMutability": "view",
      "type": "function"
    },
    {
      "inputs": [],
      "name": "contractURI",
      "outputs": [
        {
          "internalType": "string",
          "name": "",
          "type": "string"
        }
      ],
      "stateMutability": "view",
      "type": "function"
    },
    {
      "inputs": [
        {
          "internalType": "uint256",
          "name": "tokenId",
          "type": "uint256"
        }
      ],
      "name": "getApproved",
      "outputs": [
        {
          "internalType": "address",
          "name": "",
          "type": "address"
        }
      ],
      "stateMutability": "view",
      "type": "function"
    },
    {
      "inputs": [
        {
          "internalType": "bytes32",
          "name": "role",
          "type": "bytes32"
        }
      ],
      "name": "getRoleAdmin",
      "outputs": [
        {
          "internalType": "bytes32",
          "name": "",
          "type": "bytes32"
        }
      ],
      "stateMutability": "view",
      "type": "function"
    },
    {
      "inputs": [
        {
          "internalType": "bytes32",
          "name": "role",
          "type": "bytes32"
        },
        {
          "internalType": "address",
          "name": "account",
          "type": "address"
        }
      ],
      "name": "grantRole",
      "outputs": [],
      "stateMutability": "nonpayable",
      "type": "function"
    },
    {
      "inputs": [
        {
          "internalType": "bytes32",
          "name": "role",
          "type": "bytes32"
        },
        {
          "internalType": "address",
          "name": "account",
          "type": "address"
        }
      ],
      "name": "hasRole",
      "outputs": [
        {
          "internalType": "bool",
          "name": "",
          "type": "bool"
        }
      ],
      "stateMutability": "view",
      "type": "function"
    },
    {
      "inputs": [
        {
          "internalType": "string",
          "name": "_name",
          "type": "string"
        },
        {
          "internalType": "string",
          "name": "_symbol",
          "type": "string"
        },
        {
          "internalType": "string",
          "name": "_baseUrl",
          "type": "string"
        },
        {
          "internalType": "uint256",
          "name": "_transferTimestamp",
          "type": "uint256"
        },
        {
          "internalType": "address",
          "name": "admin",
          "type": "address"
        }
      ],
      "name": "initialize",
      "outputs": [],
      "stateMutability": "nonpayable",
      "type": "function"
    },
    {
      "inputs": [
        {
          "internalType": "address",
          "name": "owner",
          "type": "address"
        },
        {
          "internalType": "address",
          "name": "operator",
          "type": "address"
        }
      ],
      "name": "isApprovedForAll",
      "outputs": [
        {
          "internalType": "bool",
          "name": "",
          "type": "bool"
        }
      ],
      "stateMutability": "view",
      "type": "function"
    },
    {
      "inputs": [],
      "name": "name",
      "outputs": [
        {
          "internalType": "string",
          "name": "",
          "type": "string"
        }
      ],
      "stateMutability": "view",
      "type": "function"
    },
    {
      "inputs": [
        {
          "internalType": "uint256",
          "name": "tokenId",
          "type": "uint256"
        }
      ],
      "name": "ownerOf",
      "outputs": [
        {
          "internalType": "address",
          "name": "",
          "type": "address"
        }
      ],
      "stateMutability": "view",
      "type": "function"
    },
    {
      "inputs": [
        {
          "internalType": "bytes32",
          "name": "role",
          "type": "bytes32"
        },
        {
          "internalType": "address",
          "name": "account",
          "type": "address"
        }
      ],
      "name": "renounceRole",
      "outputs": [],
      "stateMutability": "nonpayable",
      "type": "function"
    },
    {
      "inputs": [
        {
          "internalType": "bytes32",
          "name": "role",
          "type": "bytes32"
        },
        {
          "internalType": "address",
          "name": "account",
          "type": "address"
        }
      ],
      "name": "revokeRole",
      "outputs": [],
      "stateMutability": "nonpayable",
      "type": "function"
    },
    {
      "inputs": [
        {
          "internalType": "address",
          "name": "to",
          "type": "address"
        }
      ],
      "name": "safeMint",
      "outputs": [],
      "stateMutability": "nonpayable",
      "type": "function"
    },
    {
      "inputs": [
        {
          "internalType": "address",
          "name": "from",
          "type": "address"
        },
        {
          "internalType": "address",
          "name": "to",
          "type": "address"
        },
        {
          "internalType": "uint256",
          "name": "tokenId",
          "type": "uint256"
        }
      ],
      "name": "safeTransferFrom",
      "outputs": [],
      "stateMutability": "nonpayable",
      "type": "function"
    },
    {
      "inputs": [
        {
          "internalType": "address",
          "name": "from",
          "type": "address"
        },
        {
          "internalType": "address",
          "name": "to",
          "type": "address"
        },
        {
          "internalType": "uint256",
          "name": "tokenId",
          "type": "uint256"
        },
        {
          "internalType": "bytes",
          "name": "data",
          "type": "bytes"
        }
      ],
      "name": "safeTransferFrom",
      "outputs": [],
      "stateMutability": "nonpayable",
      "type": "function"
    },
    {
      "inputs": [
        {
          "internalType": "address",
          "name": "operator",
          "type": "address"
        },
        {
          "internalType": "bool",
          "name": "approved",
          "type": "bool"
        }
      ],
      "name": "setApprovalForAll",
      "outputs": [],
      "stateMutability": "nonpayable",
      "type": "function"
    },
    {
      "inputs": [
        {
          "internalType": "bytes4",
          "name": "interfaceId",
          "type": "bytes4"
        }
      ],
      "name": "supportsInterface",
      "outputs": [
        {
          "internalType": "bool",
          "name": "",
          "type": "bool"
        }
      ],
      "stateMutability": "view",
      "type": "function"
    },
    {
      "inputs": [],
      "name": "symbol",
      "outputs": [
        {
          "internalType": "string",
          "name": "",
          "type": "string"
        }
      ],
      "stateMutability": "view",
      "type": "function"
    },
    {
      "inputs": [
        {
          "internalType": "uint256",
          "name": "tokenId",
          "type": "uint256"
        }
      ],
      "name": "tokenURI",
      "outputs": [
        {
          "internalType": "string",
          "name": "",
          "type": "string"
        }
      ],
      "stateMutability": "view",
      "type": "function"
    },
    {
      "inputs": [
        {
          "internalType": "address",
          "name": "from",
          "type": "address"
        },
        {
          "internalType": "address",
          "name": "to",
          "type": "address"
        },
        {
          "internalType": "uint256",
          "name": "tokenId",
          "type": "uint256"
        }
      ],
      "name": "transferFrom",
      "outputs": [],
      "stateMutability": "nonpayable",
      "type": "function"
    },
    {
      "inputs": [],
      "name": "transferTimestamp",
      "outputs": [
        {
          "internalType": "uint256",
          "name": "",
          "type": "uint256"
        }
      ],
      "stateMutability": "view",
      "type": "function"
    }
  ],
  "bytecode": "0x608060405234801561001057600080fd5b5061001961001e565b6100de565b600054610100900460ff161561008a5760405162461bcd60e51b815260206004820152602760248201527f496e697469616c697a61626c653a20636f6e747261637420697320696e697469604482015266616c697a696e6760c81b606482015260840160405180910390fd5b60005460ff90811610156100dc576000805460ff191660ff9081179091556040519081527f7f26b83ff96e1f2b6a682f133852f6798a09c465da95921460cefb38474024989060200160405180910390a15b565b61242680620000ee6000396000f3fe608060405234801561001057600080fd5b50600436106101a35760003560e01c80636c0360eb116100ee578063b88d4fde11610097578063d539139311610071578063d539139314610381578063d547741f146103a8578063e8a3d485146103bb578063e985e9c5146103c3576101a3565b8063b88d4fde14610352578063bb7c9b0614610365578063c87b56dd1461036e576101a3565b806395d89b41116100c857806395d89b411461032f578063a217fddf14610337578063a22cb4651461033f576101a3565b80636c0360eb146102db57806370a08231146102e357806391d14854146102f6576101a3565b80632f2ff15d1161015057806340d097c31161012a57806340d097c3146102a257806342842e0e146102b55780636352211e146102c8576101a3565b80632f2ff15d1461026957806330a8ff4e1461027c57806336568abe1461028f576101a3565b8063095ea7b311610181578063095ea7b31461021057806323b872dd14610225578063248a9ca314610238576101a3565b806301ffc9a7146101a857806306fdde03146101d0578063081812fc146101e5575b600080fd5b6101bb6101b6366004611fb7565b6103ff565b60405190151581526020015b60405180910390f35b6101d8610412565b6040516101c79190612276565b6101f86101f3366004611f7d565b6104a4565b6040516001600160a01b0390911681526020016101c7565b61022361021e366004611f54565b6104cb565b005b610223610233366004611e0a565b610602565b61025b610246366004611f7d565b60009081526097602052604090206001015490565b6040519081526020016101c7565b610223610277366004611f95565b610689565b61022361028a366004611fef565b6106ae565b61022361029d366004611f95565b6108d9565b6102236102b0366004611dbe565b610965565b6102236102c3366004611e0a565b6109b4565b6101f86102d6366004611f7d565b6109cf565b6101d8610a34565b61025b6102f1366004611dbe565b610ac2565b6101bb610304366004611f95565b60009182526097602090815260408084206001600160a01b0393909316845291905290205460ff1690565b6101d8610b5c565b61025b600081565b61022361034d366004611f1a565b610b6b565b610223610360366004611e45565b610b76565b61025b60cb5481565b6101d861037c366004611f7d565b610c04565b61025b7f9f2df0fed2c77648de5860a4cc508cd0818c85b8b8a1ab4ceeef8d981c8956a681565b6102236103b6366004611f95565b610c6b565b6101d8610c90565b6101bb6103d1366004611dd8565b6001600160a01b039182166000908152606a6020908152604080832093909416825291909152205460ff1690565b600061040a82610cb8565b90505b919050565b6060606580546104219061232e565b80601f016020809104026020016040519081016040528092919081815260200182805461044d9061232e565b801561049a5780601f1061046f5761010080835404028352916020019161049a565b820191906000526020600020905b81548152906001019060200180831161047d57829003601f168201915b5050505050905090565b60006104af82610cf6565b506000908152606960205260409020546001600160a01b031690565b60006104d6826109cf565b9050806001600160a01b0316836001600160a01b031614156105655760405162461bcd60e51b815260206004820152602160248201527f4552433732313a20617070726f76616c20746f2063757272656e74206f776e6560448201527f720000000000000000000000000000000000000000000000000000000000000060648201526084015b60405180910390fd5b336001600160a01b0382161480610581575061058181336103d1565b6105f35760405162461bcd60e51b815260206004820152603e60248201527f4552433732313a20617070726f76652063616c6c6572206973206e6f7420746f60448201527f6b656e206f776e6572206e6f7220617070726f76656420666f7220616c6c0000606482015260840161055c565b6105fd8383610d5d565b505050565b61060c3382610dd8565b61067e5760405162461bcd60e51b815260206004820152602e60248201527f4552433732313a2063616c6c6572206973206e6f7420746f6b656e206f776e6560448201527f72206e6f7220617070726f766564000000000000000000000000000000000000606482015260840161055c565b6105fd838383610e57565b6000828152609760205260409020600101546106a48161103c565b6105fd8383611046565b600054610100900460ff16158080156106ce5750600054600160ff909116105b806106e85750303b1580156106e8575060005460ff166001145b61075a5760405162461bcd60e51b815260206004820152602e60248201527f496e697469616c697a61626c653a20636f6e747261637420697320616c72656160448201527f647920696e697469616c697a6564000000000000000000000000000000000000606482015260840161055c565b6000805460ff19166001179055801561077d576000805461ff0019166101001790555b6107f089898080601f01602080910402602001604051908101604052809392919081815260200183838082843760009201919091525050604080516020601f8d018190048102820181019092528b815292508b91508a90819084018382808284376000920191909152506110e892505050565b6107f861115d565b610803600033611046565b61082d7f9f2df0fed2c77648de5860a4cc508cd0818c85b8b8a1ab4ceeef8d981c8956a633611046565b6108577f9f2df0fed2c77648de5860a4cc508cd0818c85b8b8a1ab4ceeef8d981c8956a683611046565b61086360ca8686611c53565b5060cb83905560cc805473ffffffffffffffffffffffffffffffffffffffff19163317905580156108ce576000805461ff0019169055604051600181527f7f26b83ff96e1f2b6a682f133852f6798a09c465da95921460cefb38474024989060200160405180910390a15b505050505050505050565b6001600160a01b03811633146109575760405162461bcd60e51b815260206004820152602f60248201527f416363657373436f6e74726f6c3a2063616e206f6e6c792072656e6f756e636560448201527f20726f6c657320666f722073656c660000000000000000000000000000000000606482015260840161055c565b61096182826111ca565b5050565b7f9f2df0fed2c77648de5860a4cc508cd0818c85b8b8a1ab4ceeef8d981c8956a661098f8161103c565b600061099a60c95490565b90506109aa60c980546001019055565b6105fd838261124d565b6105fd83838360405180602001604052806000815250610b76565b6000818152606760205260408120546001600160a01b03168061040a5760405162461bcd60e51b815260206004820152601860248201527f4552433732313a20696e76616c696420746f6b656e2049440000000000000000604482015260640161055c565b60ca8054610a419061232e565b80601f0160208091040260200160405190810160405280929190818152602001828054610a6d9061232e565b8015610aba5780601f10610a8f57610100808354040283529160200191610aba565b820191906000526020600020905b815481529060010190602001808311610a9d57829003601f168201915b505050505081565b60006001600160a01b038216610b405760405162461bcd60e51b815260206004820152602960248201527f4552433732313a2061646472657373207a65726f206973206e6f74206120766160448201527f6c6964206f776e65720000000000000000000000000000000000000000000000606482015260840161055c565b506001600160a01b031660009081526068602052604090205490565b6060606680546104219061232e565b610961338383611267565b610b803383610dd8565b610bf25760405162461bcd60e51b815260206004820152602e60248201527f4552433732313a2063616c6c6572206973206e6f7420746f6b656e206f776e6560448201527f72206e6f7220617070726f766564000000000000000000000000000000000000606482015260840161055c565b610bfe84848484611336565b50505050565b6060610c0f82610cf6565b6000610c196113b4565b90506000815111610c395760405180602001604052806000815250610c64565b80610c43846113c3565b604051602001610c549291906120ca565b6040516020818303038152906040525b9392505050565b600082815260976020526040902060010154610c868161103c565b6105fd83836111ca565b606060ca604051602001610ca491906120f9565b604051602081830303815290604052905090565b60006001600160e01b031982167f7965db0b00000000000000000000000000000000000000000000000000000000148061040a575061040a826114de565b6000818152606760205260409020546001600160a01b0316610d5a5760405162461bcd60e51b815260206004820152601860248201527f4552433732313a20696e76616c696420746f6b656e2049440000000000000000604482015260640161055c565b50565b6000818152606960205260409020805473ffffffffffffffffffffffffffffffffffffffff19166001600160a01b0384169081179091558190610d9f826109cf565b6001600160a01b03167f8c5be1e5ebec7d5bd14f71427d1e84f3dd0314c0f7b2291e5b200ac8c7c3b92560405160405180910390a45050565b600080610de4836109cf565b9050806001600160a01b0316846001600160a01b03161480610e2b57506001600160a01b038082166000908152606a602090815260408083209388168352929052205460ff165b80610e4f5750836001600160a01b0316610e44846104a4565b6001600160a01b0316145b949350505050565b826001600160a01b0316610e6a826109cf565b6001600160a01b031614610ee65760405162461bcd60e51b815260206004820152602560248201527f4552433732313a207472616e736665722066726f6d20696e636f72726563742060448201527f6f776e6572000000000000000000000000000000000000000000000000000000606482015260840161055c565b6001600160a01b038216610f615760405162461bcd60e51b8152602060048201526024808201527f4552433732313a207472616e7366657220746f20746865207a65726f2061646460448201527f7265737300000000000000000000000000000000000000000000000000000000606482015260840161055c565b610f6c838383611579565b610f77600082610d5d565b6001600160a01b0383166000908152606860205260408120805460019290610fa09084906122d4565b90915550506001600160a01b0382166000908152606860205260408120805460019290610fce908490612289565b9091555050600081815260676020526040808220805473ffffffffffffffffffffffffffffffffffffffff19166001600160a01b0386811691821790925591518493918716917fddf252ad1be2c89b69c2b068fc378daa952ba7f163c4a11628f55a4df523b3ef91a46105fd565b610d5a8133611604565b60008281526097602090815260408083206001600160a01b038516845290915290205460ff166109615760008281526097602090815260408083206001600160a01b03851684529091529020805460ff191660011790556110a43390565b6001600160a01b0316816001600160a01b0316837f2f8788117e7eff1d82e926ec794901d17c78024a50270940304540a733656f0d60405160405180910390a45050565b600054610100900460ff166111535760405162461bcd60e51b815260206004820152602b60248201527f496e697469616c697a61626c653a20636f6e7472616374206973206e6f74206960448201526a6e697469616c697a696e6760a81b606482015260840161055c565b6109618282611684565b600054610100900460ff166111c85760405162461bcd60e51b815260206004820152602b60248201527f496e697469616c697a61626c653a20636f6e7472616374206973206e6f74206960448201526a6e697469616c697a696e6760a81b606482015260840161055c565b565b60008281526097602090815260408083206001600160a01b038516845290915290205460ff16156109615760008281526097602090815260408083206001600160a01b0385168085529252808320805460ff1916905551339285917ff6391f5c32d9c69d2a47ea670b442974b53935d1edc7fd64eb21e047a839171b9190a45050565b610961828260405180602001604052806000815250611716565b816001600160a01b0316836001600160a01b031614156112c95760405162461bcd60e51b815260206004820152601960248201527f4552433732313a20617070726f766520746f2063616c6c657200000000000000604482015260640161055c565b6001600160a01b038381166000818152606a6020908152604080832094871680845294825291829020805460ff191686151590811790915591519182527f17307eab39ab6107e8899845ad3d59bd9653f200f220920489ca2b5937696c31910160405180910390a3505050565b611341848484610e57565b61134d84848484611794565b610bfe5760405162461bcd60e51b815260206004820152603260248201527f4552433732313a207472616e7366657220746f206e6f6e20455243373231526560448201527131b2b4bb32b91034b6b83632b6b2b73a32b960711b606482015260840161055c565b606060ca80546104219061232e565b6060816113e857506040805180820190915260018152600360fc1b602082015261040d565b8160005b811561141257806113fc81612369565b915061140b9050600a836122a1565b91506113ec565b60008167ffffffffffffffff81111561143b57634e487b7160e01b600052604160045260246000fd5b6040519080825280601f01601f191660200182016040528015611465576020820181803683370190505b5090505b8415610e4f5761147a6001836122d4565b9150611487600a86612384565b611492906030612289565b60f81b8183815181106114b557634e487b7160e01b600052603260045260246000fd5b60200101906001600160f81b031916908160001a9053506114d7600a866122a1565b9450611469565b60006001600160e01b031982167f80ac58cd00000000000000000000000000000000000000000000000000000000148061154157506001600160e01b031982167f5b5e139f00000000000000000000000000000000000000000000000000000000145b8061040a57507f01ffc9a7000000000000000000000000000000000000000000000000000000006001600160e01b031983161461040a565b6001600160a01b038316156115ff5760cb5442116115ff5760405162461bcd60e51b815260206004820152602260248201527f7472616e7366657273206e6f7420616c6c6f776564206174207468697320746960448201527f6d65000000000000000000000000000000000000000000000000000000000000606482015260840161055c565b6105fd565b60008281526097602090815260408083206001600160a01b038516845290915290205460ff1661096157611642816001600160a01b031660146118ec565b61164d8360206118ec565b60405160200161165e9291906121b9565b60408051601f198184030181529082905262461bcd60e51b825261055c91600401612276565b600054610100900460ff166116ef5760405162461bcd60e51b815260206004820152602b60248201527f496e697469616c697a61626c653a20636f6e7472616374206973206e6f74206960448201526a6e697469616c697a696e6760a81b606482015260840161055c565b8151611702906065906020850190611cd7565b5080516105fd906066906020840190611cd7565b6117208383611af7565b61172d6000848484611794565b6105fd5760405162461bcd60e51b815260206004820152603260248201527f4552433732313a207472616e7366657220746f206e6f6e20455243373231526560448201527131b2b4bb32b91034b6b83632b6b2b73a32b960711b606482015260840161055c565b60006001600160a01b0384163b156118e157604051630a85bd0160e11b81526001600160a01b0385169063150b7a02906117d890339089908890889060040161223a565b602060405180830381600087803b1580156117f257600080fd5b505af1925050508015611822575060408051601f3d908101601f1916820190925261181f91810190611fd3565b60015b6118c7573d808015611850576040519150601f19603f3d011682016040523d82523d6000602084013e611855565b606091505b5080516118bf5760405162461bcd60e51b815260206004820152603260248201527f4552433732313a207472616e7366657220746f206e6f6e20455243373231526560448201527131b2b4bb32b91034b6b83632b6b2b73a32b960711b606482015260840161055c565b805181602001fd5b6001600160e01b031916630a85bd0160e11b149050610e4f565b506001949350505050565b606060006118fb8360026122b5565b611906906002612289565b67ffffffffffffffff81111561192c57634e487b7160e01b600052604160045260246000fd5b6040519080825280601f01601f191660200182016040528015611956576020820181803683370190505b509050600360fc1b8160008151811061197f57634e487b7160e01b600052603260045260246000fd5b60200101906001600160f81b031916908160001a9053507f7800000000000000000000000000000000000000000000000000000000000000816001815181106119d857634e487b7160e01b600052603260045260246000fd5b60200101906001600160f81b031916908160001a90535060006119fc8460026122b5565b611a07906001612289565b90505b6001811115611aa8577f303132333435363738396162636465660000000000000000000000000000000085600f1660108110611a5657634e487b7160e01b600052603260045260246000fd5b1a60f81b828281518110611a7a57634e487b7160e01b600052603260045260246000fd5b60200101906001600160f81b031916908160001a90535060049490941c93611aa181612317565b9050611a0a565b508315610c645760405162461bcd60e51b815260206004820181905260248201527f537472696e67733a20686578206c656e67746820696e73756666696369656e74604482015260640161055c565b6001600160a01b038216611b4d5760405162461bcd60e51b815260206004820181905260248201527f4552433732313a206d696e7420746f20746865207a65726f2061646472657373604482015260640161055c565b6000818152606760205260409020546001600160a01b031615611bb25760405162461bcd60e51b815260206004820152601c60248201527f4552433732313a20746f6b656e20616c7265616479206d696e74656400000000604482015260640161055c565b611bbe60008383611579565b6001600160a01b0382166000908152606860205260408120805460019290611be7908490612289565b9091555050600081815260676020526040808220805473ffffffffffffffffffffffffffffffffffffffff19166001600160a01b03861690811790915590518392907fddf252ad1be2c89b69c2b068fc378daa952ba7f163c4a11628f55a4df523b3ef908290a4610961565b828054611c5f9061232e565b90600052602060002090601f016020900481019282611c815760008555611cc7565b82601f10611c9a5782800160ff19823516178555611cc7565b82800160010185558215611cc7579182015b82811115611cc7578235825591602001919060010190611cac565b50611cd3929150611d4b565b5090565b828054611ce39061232e565b90600052602060002090601f016020900481019282611d055760008555611cc7565b82601f10611d1e57805160ff1916838001178555611cc7565b82800160010185558215611cc7579182015b82811115611cc7578251825591602001919060010190611d30565b5b80821115611cd35760008155600101611d4c565b80356001600160a01b038116811461040d57600080fd5b60008083601f840112611d88578182fd5b50813567ffffffffffffffff811115611d9f578182fd5b602083019150836020828501011115611db757600080fd5b9250929050565b600060208284031215611dcf578081fd5b610c6482611d60565b60008060408385031215611dea578081fd5b611df383611d60565b9150611e0160208401611d60565b90509250929050565b600080600060608486031215611e1e578081fd5b611e2784611d60565b9250611e3560208501611d60565b9150604084013590509250925092565b60008060008060808587031215611e5a578081fd5b611e6385611d60565b9350611e7160208601611d60565b925060408501359150606085013567ffffffffffffffff80821115611e94578283fd5b818701915087601f830112611ea7578283fd5b813581811115611eb957611eb96123c4565b604051601f8201601f19908116603f01168101908382118183101715611ee157611ee16123c4565b816040528281528a6020848701011115611ef9578586fd5b82602086016020830137918201602001949094529598949750929550505050565b60008060408385031215611f2c578182fd5b611f3583611d60565b915060208301358015158114611f49578182fd5b809150509250929050565b60008060408385031215611f66578182fd5b611f6f83611d60565b946020939093013593505050565b600060208284031215611f8e578081fd5b5035919050565b60008060408385031215611fa7578182fd5b82359150611e0160208401611d60565b600060208284031215611fc8578081fd5b8135610c64816123da565b600060208284031215611fe4578081fd5b8151610c64816123da565b60008060008060008060008060a0898b03121561200a578384fd5b883567ffffffffffffffff80821115612021578586fd5b61202d8c838d01611d77565b909a50985060208b0135915080821115612045578586fd5b6120518c838d01611d77565b909850965060408b0135915080821115612069578586fd5b506120768b828c01611d77565b9095509350506060890135915061208f60808a01611d60565b90509295985092959890939650565b600081518084526120b68160208601602086016122eb565b601f01601f19169290920160200192915050565b600083516120dc8184602088016122eb565b8351908301906120f08183602088016122eb565b01949350505050565b815460009081906002810460018083168061211557607f831692505b602080841082141561213557634e487b7160e01b87526022600452602487fd5b818015612149576001811461215a57612186565b60ff19861689528489019650612186565b60008a815260209020885b8681101561217e5781548b820152908501908301612165565b505084890196505b505050505050610e4f817f636f6e74726163742e6a736f6e000000000000000000000000000000000000008152600d0190565b60007f416363657373436f6e74726f6c3a206163636f756e7420000000000000000000825283516121f18160178501602088016122eb565b7f206973206d697373696e6720726f6c6520000000000000000000000000000000601791840191820152835161222e8160288401602088016122eb565b01602801949350505050565b60006001600160a01b0380871683528086166020840152508360408301526080606083015261226c608083018461209e565b9695505050505050565b600060208252610c64602083018461209e565b6000821982111561229c5761229c612398565b500190565b6000826122b0576122b06123ae565b500490565b60008160001904831182151516156122cf576122cf612398565b500290565b6000828210156122e6576122e6612398565b500390565b60005b838110156123065781810151838201526020016122ee565b83811115610bfe5750506000910152565b60008161232657612326612398565b506000190190565b60028104600182168061234257607f821691505b6020821081141561236357634e487b7160e01b600052602260045260246000fd5b50919050565b600060001982141561237d5761237d612398565b5060010190565b600082612393576123936123ae565b500690565b634e487b7160e01b600052601160045260246000fd5b634e487b7160e01b600052601260045260246000fd5b634e487b7160e01b600052604160045260246000fd5b6001600160e01b031981168114610d5a57600080fdfea26469706673582212200ffa5c34ead46a76fab57fe33a757708cdf0adcd22ddbc0f1e9bfe2c63cc5bb364736f6c63430008020033",
  "linkReferences": {},
  "deployedLinkReferences": {}
}